{
  "contractName": "MultiSignatureWallet",
  "abi": [
    {
      "constant": true,
      "inputs": [
        {
          "name": "",
          "type": "uint256"
        }
      ],
      "name": "owners",
      "outputs": [
        {
          "name": "",
          "type": "address"
        }
      ],
      "payable": false,
      "stateMutability": "view",
      "type": "function"
    },
    {
      "constant": true,
      "inputs": [
        {
          "name": "",
          "type": "address"
        }
      ],
      "name": "isOwner",
      "outputs": [
        {
          "name": "",
          "type": "bool"
        }
      ],
      "payable": false,
      "stateMutability": "view",
      "type": "function"
    },
    {
      "constant": true,
      "inputs": [
        {
          "name": "",
          "type": "uint256"
        },
        {
          "name": "",
          "type": "address"
        }
      ],
      "name": "confirmations",
      "outputs": [
        {
          "name": "",
          "type": "bool"
        }
      ],
      "payable": false,
      "stateMutability": "view",
      "type": "function"
    },
    {
      "constant": true,
      "inputs": [
        {
          "name": "",
          "type": "uint256"
        }
      ],
      "name": "transactions",
      "outputs": [
        {
          "name": "executed",
          "type": "bool"
        },
        {
          "name": "destination",
          "type": "address"
        },
        {
          "name": "value",
          "type": "uint256"
        },
        {
          "name": "data",
          "type": "bytes"
        }
      ],
      "payable": false,
      "stateMutability": "view",
      "type": "function"
    },
    {
      "constant": true,
      "inputs": [],
      "name": "transactionCount",
      "outputs": [
        {
          "name": "",
          "type": "uint256"
        }
      ],
      "payable": false,
      "stateMutability": "view",
      "type": "function"
    },
    {
      "constant": true,
      "inputs": [],
      "name": "required",
      "outputs": [
        {
          "name": "",
          "type": "uint256"
        }
      ],
      "payable": false,
      "stateMutability": "view",
      "type": "function"
    },
    {
      "inputs": [
        {
          "name": "_owners",
          "type": "address[]"
        },
        {
          "name": "_required",
          "type": "uint256"
        }
      ],
      "payable": false,
      "stateMutability": "nonpayable",
      "type": "constructor"
    },
    {
      "payable": true,
      "stateMutability": "payable",
      "type": "fallback"
    },
    {
      "anonymous": false,
      "inputs": [
        {
          "indexed": true,
          "name": "transactionId",
          "type": "uint256"
        }
      ],
      "name": "Submission",
      "type": "event"
    },
    {
      "anonymous": false,
      "inputs": [
        {
          "indexed": true,
          "name": "sender",
          "type": "address"
        },
        {
          "indexed": true,
          "name": "transactionId",
          "type": "uint256"
        }
      ],
      "name": "Confirmation",
      "type": "event"
    },
    {
      "anonymous": false,
      "inputs": [
        {
          "indexed": true,
          "name": "transactionId",
          "type": "uint256"
        }
      ],
      "name": "Execution",
      "type": "event"
    },
    {
      "anonymous": false,
      "inputs": [
        {
          "indexed": true,
          "name": "transactionId",
          "type": "uint256"
        }
      ],
      "name": "ExecutionFailure",
      "type": "event"
    },
    {
      "constant": false,
      "inputs": [
        {
          "name": "destination",
          "type": "address"
        },
        {
          "name": "value",
          "type": "uint256"
        },
        {
          "name": "data",
          "type": "bytes"
        }
      ],
      "name": "submitTransaction",
      "outputs": [
        {
          "name": "transactionId",
          "type": "uint256"
        }
      ],
      "payable": false,
      "stateMutability": "nonpayable",
      "type": "function"
    },
    {
      "constant": false,
      "inputs": [
        {
          "name": "transactionId",
          "type": "uint256"
        }
      ],
      "name": "confirmTransaction",
      "outputs": [],
      "payable": false,
      "stateMutability": "nonpayable",
      "type": "function"
    },
    {
      "constant": false,
      "inputs": [
        {
          "name": "transactionId",
          "type": "uint256"
        }
      ],
      "name": "revokeConfirmation",
      "outputs": [],
      "payable": false,
      "stateMutability": "nonpayable",
      "type": "function"
    },
    {
      "constant": false,
      "inputs": [
        {
          "name": "transactionId",
          "type": "uint256"
        }
      ],
      "name": "executeTransaction",
      "outputs": [],
      "payable": false,
      "stateMutability": "nonpayable",
      "type": "function"
    },
    {
      "constant": true,
      "inputs": [
        {
          "name": "transactionId",
          "type": "uint256"
        }
      ],
      "name": "isConfirmed",
      "outputs": [
        {
          "name": "",
          "type": "bool"
        }
      ],
      "payable": false,
      "stateMutability": "view",
      "type": "function"
    }
  ],
  "bytecode": "0x608060405234801561001057600080fd5b5060405162000f1538038062000f1583398101806040528101908080518201929190602001805190602001909291905050506000825182818111806100555750600081145b806100605750600082145b1561006a57600080fd5b600092505b84518310156100f457600160036000878681518110151561008c57fe5b9060200190602002015173ffffffffffffffffffffffffffffffffffffffff1673ffffffffffffffffffffffffffffffffffffffff16815260200190815260200160002060006101000a81548160ff021916908315150217905550828060010193505061006f565b846000908051906020019061010a92919061011c565b508360018190555050505050506101e9565b828054828255906000526020600020908101928215610195579160200282015b828111156101945782518260006101000a81548173ffffffffffffffffffffffffffffffffffffffff021916908373ffffffffffffffffffffffffffffffffffffffff1602179055509160200191906001019061013c565b5b5090506101a291906101a6565b5090565b6101e691905b808211156101e257600081816101000a81549073ffffffffffffffffffffffffffffffffffffffff0219169055506001016101ac565b5090565b90565b610d1c80620001f96000396000f3006080604052600436106100af576000357c0100000000000000000000000000000000000000000000000000000000900463ffffffff168063025e7c27146100b157806320ea8d861461011e5780632f54bf6e1461014b5780633411c81c146101a6578063784547a71461020b5780639ace38c214610250578063b77bf6001461033b578063c01a8c8414610366578063c642747414610393578063dc8452cd1461043a578063ee22610b14610465575b005b3480156100bd57600080fd5b506100dc60048036038101908080359060200190929190505050610492565b604051808273ffffffffffffffffffffffffffffffffffffffff1673ffffffffffffffffffffffffffffffffffffffff16815260200191505060405180910390f35b34801561012a57600080fd5b50610149600480360381019080803590602001909291905050506104d0565b005b34801561015757600080fd5b5061018c600480360381019080803573ffffffffffffffffffffffffffffffffffffffff1690602001909291905050506104d3565b604051808215151515815260200191505060405180910390f35b3480156101b257600080fd5b506101f160048036038101908080359060200190929190803573ffffffffffffffffffffffffffffffffffffffff1690602001909291905050506104f3565b604051808215151515815260200191505060405180910390f35b34801561021757600080fd5b5061023660048036038101908080359060200190929190505050610522565b604051808215151515815260200191505060405180910390f35b34801561025c57600080fd5b5061027b6004803603810190808035906020019092919050505061060d565b60405180851515151581526020018473ffffffffffffffffffffffffffffffffffffffff1673ffffffffffffffffffffffffffffffffffffffff16815260200183815260200180602001828103825283818151815260200191508051906020019080838360005b838110156102fd5780820151818401526020810190506102e2565b50505050905090810190601f16801561032a5780820380516001836020036101000a031916815260200191505b509550505050505060405180910390f35b34801561034757600080fd5b50610350610702565b6040518082815260200191505060405180910390f35b34801561037257600080fd5b5061039160048036038101908080359060200190929190505050610708565b005b34801561039f57600080fd5b50610424600480360381019080803573ffffffffffffffffffffffffffffffffffffffff16906020019092919080359060200190929190803590602001908201803590602001908080601f01602080910402602001604051908101604052809392919081815260200183838082843782019150505050505091929192905050506108e5565b6040518082815260200191505060405180910390f35b34801561044657600080fd5b5061044f61095d565b6040518082815260200191505060405180910390f35b34801561047157600080fd5b5061049060048036038101908080359060200190929190505050610963565b005b6000818154811015156104a157fe5b906000526020600020016000915054906101000a900473ffffffffffffffffffffffffffffffffffffffff1681565b50565b60036020528060005260406000206000915054906101000a900460ff1681565b60056020528160005260406000206020528060005260406000206000915091509054906101000a900460ff1681565b6000806000809150600090505b6000805490508110156106055760011515600560008681526020019081526020016000206000808481548110151561056357fe5b9060005260206000200160009054906101000a900473ffffffffffffffffffffffffffffffffffffffff1673ffffffffffffffffffffffffffffffffffffffff1673ffffffffffffffffffffffffffffffffffffffff16815260200190815260200160002060009054906101000a900460ff16151514156105e5576001820191505b6001548214156105f85760019250610606565b808060010191505061052f565b5b5050919050565b60046020528060005260406000206000915090508060000160009054906101000a900460ff16908060000160019054906101000a900473ffffffffffffffffffffffffffffffffffffffff1690806001015490806002018054600181600116156101000203166002900480601f0160208091040260200160405190810160405280929190818152602001828054600181600116156101000203166002900480156106f85780601f106106cd576101008083540402835291602001916106f8565b820191906000526020600020905b8154815290600101906020018083116106db57829003601f168201915b5050505050905084565b60025481565b600360003373ffffffffffffffffffffffffffffffffffffffff1673ffffffffffffffffffffffffffffffffffffffff16815260200190815260200160002060009054906101000a900460ff16151561076057600080fd5b60006004600083815260200190815260200160002060000160019054906101000a900473ffffffffffffffffffffffffffffffffffffffff1673ffffffffffffffffffffffffffffffffffffffff16141515156107bc57600080fd5b600015156005600083815260200190815260200160002060003373ffffffffffffffffffffffffffffffffffffffff1673ffffffffffffffffffffffffffffffffffffffff16815260200190815260200160002060009054906101000a900460ff16151514151561082c57600080fd5b60016005600083815260200190815260200160002060003373ffffffffffffffffffffffffffffffffffffffff1673ffffffffffffffffffffffffffffffffffffffff16815260200190815260200160002060006101000a81548160ff021916908315150217905550803373ffffffffffffffffffffffffffffffffffffffff167f4a504a94899432a9846e1aa406dceb1bcfd538bb839071d49d1e5e23f5be30ef60405160405180910390a36108e281610963565b50565b6000600360003373ffffffffffffffffffffffffffffffffffffffff1673ffffffffffffffffffffffffffffffffffffffff16815260200190815260200160002060009054906101000a900460ff16151561093f57600080fd5b61094a848484610b20565b905061095581610522565b509392505050565b60015481565b60008015156004600084815260200190815260200160002060000160009054906101000a900460ff16151514151561099a57600080fd5b6109a382610522565b15610b1c5760046000838152602001908152602001600020905060018160000160006101000a81548160ff0219169083151502179055508060000160019054906101000a900473ffffffffffffffffffffffffffffffffffffffff1673ffffffffffffffffffffffffffffffffffffffff168160010154826002016040518082805460018160011615610100020316600290048015610a835780601f10610a5857610100808354040283529160200191610a83565b820191906000526020600020905b815481529060010190602001808311610a6657829003601f168201915b505091505060006040518083038185875af19250505015610ad057817f33e13ecb54c3076d8e8bb8c2881800a4d972b792045ffae98fdf46df365fed7560405160405180910390a2610b1b565b817f526441bb6c1aba3c9a4a6ca1d6545da9c2333c8c48343ef398eb858d72b7923660405160405180910390a260008160000160006101000a81548160ff0219169083151502179055505b5b5050565b600060025490506080604051908101604052806000151581526020018573ffffffffffffffffffffffffffffffffffffffff168152602001848152602001838152506004600083815260200190815260200160002060008201518160000160006101000a81548160ff02191690831515021790555060208201518160000160016101000a81548173ffffffffffffffffffffffffffffffffffffffff021916908373ffffffffffffffffffffffffffffffffffffffff160217905550604082015181600101556060820151816002019080519060200190610c02929190610c4b565b509050506001600260008282540192505081905550807fc0ba8fe4b176c1714197d43b9cc6bcf797a4a7461c5fe8d0ef6e184ae7601e5160405160405180910390a29392505050565b828054600181600116156101000203166002900490600052602060002090601f016020900481019282601f10610c8c57805160ff1916838001178555610cba565b82800160010185558215610cba579182015b82811115610cb9578251825591602001919060010190610c9e565b5b509050610cc79190610ccb565b5090565b610ced91905b80821115610ce9576000816000905550600101610cd1565b5090565b905600a165627a7a72305820463ee5b157b9a9bc60c67fa98076ab1f472663dac03394f67e290fe3bd364c6c0029",
  "source": "pragma solidity ^0.4.15;\n\ncontract MultiSignatureWallet {\n    \n    event Submission(uint indexed transactionId);\n\n    event Confirmation(address indexed sender, uint indexed transactionId);\n\n    event Execution(uint indexed transactionId);\n\n    event ExecutionFailure(uint indexed transactionId);\n\n    // Array to store owner addresses\n    address[] public owners;\n\n    // Number of required confirmations\n    uint public required;\n\n    // Counter for transactionId\n    uint public transactionCount;\n\n    // Mapping to reference whether a given address is an owner\n    mapping(address => bool) public isOwner;\n\n    // Mapping to reference transactions based on transactionId\n    mapping(uint => Transaction) public transactions;\n\n    // Mapping to store which owners have confirmed which transaction\n    mapping(uint => mapping(address => bool)) public confirmations;\n\n    struct Transaction {\n      bool executed;\n      address destination;\n      uint value;\n      bytes data;\n    }\n\n    /// @dev Fallback function, which accepts ether when sent to contract\n    function() public payable {}\n\n    /*\n     * Public functions\n     */\n    /// @dev Contract constructor sets initial owners and required number of confirmations.\n    /// @param _owners List of initial owners.\n    /// @param _required Number of required confirmations.\n    constructor(address[] _owners, uint _required) public validRequirement(_owners.length, _required) {\n        for(uint i = 0; i < _owners.length; i++) {\n            isOwner[_owners[i]] = true;\n        }\n        owners = _owners;\n        required = _required;\n    }\n\n\n    modifier validRequirement(uint ownerCount, uint _required) {\n        if(_required > ownerCount || _required == 0 || ownerCount == 0){\n            revert();\n        }\n        _;\n    }\n\n    //  function MultiSignatureWallet(address[] _owners, uint _required) public {}\n\n    /// @dev Allows an owner to submit and confirm a transaction.\n    /// @param destination Transaction target address.\n    /// @param value Transaction ether value.\n    /// @param data Transaction data payload.\n    /// @return Returns transaction ID.\n    function submitTransaction(address destination, uint value, bytes data) public returns (uint transactionId) {\n        // require caller of this function to be an owner\n        require(isOwner[msg.sender]);\n\n        // call helper functions\n        transactionId = addTransaction(destination, value, data);\n        isConfirmed(transactionId);\n\n        // function header will automatically return transactionId\n\n    }\n\n    /// @dev Allows an owner to confirm a transaction.\n    /// @param transactionId Transaction ID.\n    function confirmTransaction(uint transactionId) public {\n\n        // require only wallet owners can call this function\n        require(isOwner[msg.sender]);\n\n        // require a transaction exists at the specified transactionId\n        require(transactions[transactionId].destination != 0);\n\n        // require msg.snder has not already confirmed this transaction\n        require(confirmations[transactionId][msg.sender] == false);\n\n        confirmations[transactionId][msg.sender] = true;\n        emit Confirmation(msg.sender, transactionId);\n        executeTransaction(transactionId);\n\n    }\n\n    /// @dev Allows an owner to revoke a confirmation for a transaction.\n    /// @param transactionId Transaction ID.\n    function revokeConfirmation(uint transactionId) public {}\n\n    /// @dev Allows anyone to execute a confirmed transaction.\n    /// @param transactionId Transaction ID.\n    function executeTransaction(uint transactionId) public {\n\n        require(transactions[transactionId].executed == false);\n\n        if(isConfirmed(transactionId)) {\n            Transaction storage txn = transactions[transactionId];\n            txn.executed = true;\n            if(txn.destination.call.value(txn.value)(txn.data)){\n                emit Execution(transactionId);\n            }\n            else{\n                emit ExecutionFailure(transactionId);\n                txn.executed = false;\n            }\n        }\n    }\n\n        /*\n         * (Possible) Helper Functions\n         */\n    /// @dev Returns the confirmation status of a transaction.\n    /// @param transactionId Transaction ID.\n    /// @return Confirmation status.\n    function isConfirmed(uint transactionId) public constant returns (bool) {\n        uint count = 0;\n        for(uint i = 0; i < owners.length; i++) {\n            if(confirmations[transactionId][owners[i]] == true){\n                count += 1;\n            }\n            if(count == required){\n                return true;\n            }\n        }\n    }\n\n    /// @dev Adds a new transaction to the transaction mapping, if transaction does not exist yet.\n    /// @param destination Transaction target address.\n    /// @param value Transaction ether value.\n    /// @param data Transaction data payload.\n    /// @return Returns transaction ID.\n    function addTransaction(address destination, uint value, bytes data) internal returns (uint transactionId) {\n\n        // set transactionId based on latest transactionCount\n        transactionId = transactionCount;\n\n        // add new Transaction to mapping\n        transactions[transactionId] = Transaction({\n            executed: false,\n            destination: destination,\n            value: value,\n            data: data\n        });\n        transactionCount += 1;\n        emit Submission(transactionId);\n        \n    }\n\n\n}\n",
  "sourcePath": "/Users/uziminhas/dev/multisig-wallet-exercise-master/contracts/MultiSignatureWallet.sol",
  "compiler": {
    "name": "solc",
    "version": "0.4.24+commit.e67f0147.Emscripten.clang"
  },
  "schemaVersion": "2.0.1",
  "updatedAt": "2018-11-21T05:34:47.134Z"
}